{
  "contractName": "Delegator",
  "abi": [
    {
      "inputs": [],
      "name": "value",
      "outputs": [
        {
          "internalType": "uint256",
          "name": "",
          "type": "uint256"
        }
      ],
      "stateMutability": "view",
      "type": "function",
      "constant": true
    },
    {
      "inputs": [
        {
          "internalType": "address",
          "name": "libraryAddress",
          "type": "address"
        },
        {
          "internalType": "uint256",
          "name": "newValue",
          "type": "uint256"
        }
      ],
      "name": "callDoSomething",
      "outputs": [],
      "stateMutability": "nonpayable",
      "type": "function"
    }
  ],
  "bytecode": "0x608060405234801561000f575f80fd5b5061020e8061001d5f395ff3fe608060405234801561000f575f80fd5b5060043610610034575f3560e01c80633fa4f24514610038578063cab3844814610052575b5f80fd5b6100405f5481565b60405190815260200160405180910390f35b610065610060366004610160565b610067565b005b5f80836001600160a01b03168360405160240161008691815260200190565b60408051601f198184030181529181526020820180516001600160e01b031663a6b206bf60e01b179052516100bb9190610195565b5f60405180830381855af49150503d805f81146100f3576040519150601f19603f3d011682016040523d82523d5f602084013e6100f8565b606091505b5091509150816101445760405162461bcd60e51b815260206004820152601360248201527211195b1959d85d1958d85b1b0819985a5b1959606a1b604482015260640160405180910390fd5b8080602001905181019061015891906101c1565b5f5550505050565b5f8060408385031215610171575f80fd5b82356001600160a01b0381168114610187575f80fd5b946020939093013593505050565b5f82515f5b818110156101b4576020818601810151858301520161019a565b505f920191825250919050565b5f602082840312156101d1575f80fd5b505191905056fea264697066735822122017df83ce99ccb90dec4ef92953b4af0b476b4583b241caa1e52ba4f5da2cd8a364736f6c63430008170033",
  "immutableReferences": {},
  "source": "// SPDX-License-Identifier: MIT\npragma solidity ^0.8.0;\n\ncontract LibraryContract {\n    function doSomething(uint newValue) external pure returns (uint) {\n        return newValue + 1;\n    }\n}\n\ncontract Delegator {\n    uint public value;\n\n    function callDoSomething(address libraryAddress, uint newValue) public {\n        (bool success, bytes memory result) = libraryAddress.delegatecall(\n            abi.encodeWithSignature(\"doSomething(uint256)\", newValue)\n        );\n        require(success, \"Delegatecall failed\");\n        value = abi.decode(result, (uint));\n    }\n}",
  "sourcePath": "/Users/instant/Desktop/DeployByTruffle/contracts/delegateCall.sol",
  "compiler": {
    "name": "solc",
    "version": "0.8.23+commit.f704f362.Emscripten.clang"
  },
  "schemaVersion": "3.4.16",
  "updatedAt": "2023-11-15T03:44:04.416Z",
  "networkType": "ethereum",
  "devdoc": {
    "kind": "dev",
    "methods": {},
    "version": 1
  },
  "userdoc": {
    "kind": "user",
    "methods": {},
    "version": 1
  }
}