{
  "contractName": "LibraryContract",
  "abi": [
    {
      "inputs": [
        {
          "internalType": "uint256",
          "name": "newValue",
          "type": "uint256"
        }
      ],
      "name": "doSomething",
      "outputs": [
        {
          "internalType": "uint256",
          "name": "",
          "type": "uint256"
        }
      ],
      "stateMutability": "pure",
      "type": "function",
      "constant": true
    }
  ],
  "bytecode": "0x608060405234801561000f575f80fd5b5060c58061001c5f395ff3fe6080604052348015600e575f80fd5b50600436106026575f3560e01c8063a6b206bf14602a575b5f80fd5b60396035366004605b565b604b565b60405190815260200160405180910390f35b5f60558260016071565b92915050565b5f60208284031215606a575f80fd5b5035919050565b80820180821115605557634e487b7160e01b5f52601160045260245ffdfea2646970667358221220bd42a3d1529259bfec3555ce9a9cd5d7f89938e31f67716a122782ad1aa54d3a64736f6c63430008170033",
  "immutableReferences": {},
  "source": "// SPDX-License-Identifier: MIT\npragma solidity ^0.8.0;\n\ncontract LibraryContract {\n    function doSomething(uint newValue) external pure returns (uint) {\n        return newValue + 1;\n    }\n}\n\ncontract Delegator {\n    uint public value;\n\n    function callDoSomething(address libraryAddress, uint newValue) public {\n        (bool success, bytes memory result) = libraryAddress.delegatecall(\n            abi.encodeWithSignature(\"doSomething(uint256)\", newValue)\n        );\n        require(success, \"Delegatecall failed\");\n        value = abi.decode(result, (uint));\n    }\n}",
  "sourcePath": "/Users/instant/Desktop/DeployByTruffle/contracts/delegateCall.sol",
  "compiler": {
    "name": "solc",
    "version": "0.8.23+commit.f704f362.Emscripten.clang"
  },
  "schemaVersion": "3.4.16",
  "updatedAt": "2023-11-15T03:44:04.414Z",
  "networkType": "ethereum",
  "devdoc": {
    "kind": "dev",
    "methods": {},
    "version": 1
  },
  "userdoc": {
    "kind": "user",
    "methods": {},
    "version": 1
  }
}