{
  "contractName": "LogicContract",
  "abi": [
    {
      "inputs": [],
      "name": "count",
      "outputs": [
        {
          "internalType": "uint256",
          "name": "",
          "type": "uint256"
        }
      ],
      "stateMutability": "view",
      "type": "function",
      "constant": true
    },
    {
      "inputs": [],
      "name": "increaseCount",
      "outputs": [],
      "stateMutability": "nonpayable",
      "type": "function"
    }
  ],
  "bytecode": "0x608060405234801561000f575f80fd5b5060c58061001c5f395ff3fe6080604052348015600e575f80fd5b50600436106030575f3560e01c806306661abd146034578063abd1b73d14604d575b5f80fd5b603b5f5481565b60405190815260200160405180910390f35b60536055565b005b60015f8082825460649190606b565b9091555050565b80820180821115608957634e487b7160e01b5f52601160045260245ffd5b9291505056fea2646970667358221220c7c99b568116b5ff57344624f5232d33ff96b0cf4b0b870f9f754ce4218f292364736f6c63430008170033",
  "immutableReferences": {},
  "source": "// SPDX-License-Identifier: MIT\npragma solidity ^0.8.0;\n\ncontract LogicContract {\n    uint public count;\n\n    function increaseCount() public {\n        count += 1;\n    }\n}",
  "sourcePath": "/Users/instant/Desktop/DeployByTruffle/contracts/LogicContract.sol",
  "compiler": {
    "name": "solc",
    "version": "0.8.23+commit.f704f362.Emscripten.clang"
  },
  "schemaVersion": "3.4.16",
  "updatedAt": "2023-11-15T04:28:12.651Z",
  "networkType": "ethereum",
  "devdoc": {
    "kind": "dev",
    "methods": {},
    "version": 1
  },
  "userdoc": {
    "kind": "user",
    "methods": {},
    "version": 1
  }
}