{
  "contractName": "Logic2",
  "abi": [
    {
      "inputs": [],
      "name": "count",
      "outputs": [
        {
          "internalType": "uint256",
          "name": "",
          "type": "uint256"
        }
      ],
      "stateMutability": "view",
      "type": "function",
      "constant": true
    },
    {
      "inputs": [],
      "name": "increaseCount",
      "outputs": [],
      "stateMutability": "nonpayable",
      "type": "function"
    },
    {
      "inputs": [],
      "name": "getCount",
      "outputs": [
        {
          "internalType": "uint256",
          "name": "",
          "type": "uint256"
        }
      ],
      "stateMutability": "view",
      "type": "function",
      "constant": true
    },
    {
      "inputs": [],
      "name": "resetCount",
      "outputs": [],
      "stateMutability": "nonpayable",
      "type": "function"
    }
  ],
  "bytecode": "0x608060405234801561000f575f80fd5b5060e68061001c5f395ff3fe6080604052348015600e575f80fd5b50600436106044575f3560e01c806306661abd146048578063a87d942c146061578063abd1b73d146067578063fd89529214606f575b5f80fd5b604f5f5481565b60405190815260200160405180910390f35b5f54604f565b606d6076565b005b606d5f8055565b60025f8082825460859190608c565b9091555050565b8082018082111560aa57634e487b7160e01b5f52601160045260245ffd5b9291505056fea26469706673582212202d0440db7e0a8fa55f876bb4d45641782ffee03b336636f5960e1f674d247b2064736f6c63430008170033",
  "immutableReferences": {},
  "source": "// SPDX-License-Identifier: MIT\npragma solidity ^0.8.0;\n\ncontract Logic2 {\n    uint public count;\n\n    function increaseCount() public {\n        count += 2; \n    }\n\n    function getCount() public view returns (uint) {\n        return count;\n    }\n\n    function resetCount() public {\n        count = 0; \n    }\n}\n",
  "sourcePath": "/Users/instant/Desktop/DeployByTruffle/contracts/Logic2.sol",
  "compiler": {
    "name": "solc",
    "version": "0.8.23+commit.f704f362.Emscripten.clang"
  },
  "schemaVersion": "3.4.16",
  "updatedAt": "2023-11-15T07:52:43.324Z",
  "networkType": "ethereum",
  "devdoc": {
    "kind": "dev",
    "methods": {},
    "version": 1
  },
  "userdoc": {
    "kind": "user",
    "methods": {},
    "version": 1
  }
}