{
  "contractName": "Logic1",
  "abi": [
    {
      "inputs": [],
      "name": "count",
      "outputs": [
        {
          "internalType": "uint256",
          "name": "",
          "type": "uint256"
        }
      ],
      "stateMutability": "view",
      "type": "function",
      "constant": true
    },
    {
      "inputs": [],
      "name": "increaseCount",
      "outputs": [],
      "stateMutability": "nonpayable",
      "type": "function"
    },
    {
      "inputs": [],
      "name": "getCount",
      "outputs": [
        {
          "internalType": "uint256",
          "name": "",
          "type": "uint256"
        }
      ],
      "stateMutability": "view",
      "type": "function",
      "constant": true
    }
  ],
  "bytecode": "0x608060405234801561000f575f80fd5b5060d58061001c5f395ff3fe6080604052348015600e575f80fd5b5060043610603a575f3560e01c806306661abd14603e578063a87d942c146057578063abd1b73d14605d575b5f80fd5b60455f5481565b60405190815260200160405180910390f35b5f546045565b60636065565b005b60015f8082825460749190607b565b9091555050565b80820180821115609957634e487b7160e01b5f52601160045260245ffd5b9291505056fea2646970667358221220e1125cf0b4050cd6fb993967fc94a6d99e6f321b3f751c5a4095ec7f0002300664736f6c63430008170033",
  "immutableReferences": {},
  "source": "// SPDX-License-Identifier: MIT\npragma solidity ^0.8.0;\n\ncontract Logic1 {\n    uint public count;\n\n    function increaseCount() public {\n        count += 1;\n    }\n\n    function getCount() public view returns (uint) {\n        return count;\n    }\n}\n",
  "sourcePath": "/Users/instant/Desktop/DeployByTruffle/contracts/Logic1.sol",
  "compiler": {
    "name": "solc",
    "version": "0.8.23+commit.f704f362.Emscripten.clang"
  },
  "schemaVersion": "3.4.16",
  "updatedAt": "2023-11-15T07:52:43.322Z",
  "networkType": "ethereum",
  "devdoc": {
    "kind": "dev",
    "methods": {},
    "version": 1
  },
  "userdoc": {
    "kind": "user",
    "methods": {},
    "version": 1
  }
}