{
  "contractName": "NFTMarket",
  "abi": [
    {
      "inputs": [],
      "stateMutability": "nonpayable",
      "type": "constructor"
    },
    {
      "inputs": [
        {
          "internalType": "address",
          "name": "owner",
          "type": "address"
        }
      ],
      "name": "OwnableInvalidOwner",
      "type": "error"
    },
    {
      "inputs": [
        {
          "internalType": "address",
          "name": "account",
          "type": "address"
        }
      ],
      "name": "OwnableUnauthorizedAccount",
      "type": "error"
    },
    {
      "anonymous": false,
      "inputs": [
        {
          "indexed": true,
          "internalType": "address",
          "name": "previousOwner",
          "type": "address"
        },
        {
          "indexed": true,
          "internalType": "address",
          "name": "newOwner",
          "type": "address"
        }
      ],
      "name": "OwnershipTransferred",
      "type": "event"
    },
    {
      "inputs": [
        {
          "internalType": "address",
          "name": "",
          "type": "address"
        },
        {
          "internalType": "address",
          "name": "",
          "type": "address"
        },
        {
          "internalType": "uint256",
          "name": "",
          "type": "uint256"
        },
        {
          "internalType": "bytes",
          "name": "",
          "type": "bytes"
        }
      ],
      "name": "onERC721Received",
      "outputs": [
        {
          "internalType": "bytes4",
          "name": "",
          "type": "bytes4"
        }
      ],
      "stateMutability": "nonpayable",
      "type": "function"
    },
    {
      "inputs": [],
      "name": "owner",
      "outputs": [
        {
          "internalType": "address",
          "name": "",
          "type": "address"
        }
      ],
      "stateMutability": "view",
      "type": "function",
      "constant": true
    },
    {
      "inputs": [],
      "name": "renounceOwnership",
      "outputs": [],
      "stateMutability": "nonpayable",
      "type": "function"
    },
    {
      "inputs": [
        {
          "internalType": "address",
          "name": "",
          "type": "address"
        },
        {
          "internalType": "uint256",
          "name": "",
          "type": "uint256"
        }
      ],
      "name": "sellerNFTs",
      "outputs": [
        {
          "internalType": "address",
          "name": "tokenAddress",
          "type": "address"
        },
        {
          "internalType": "uint256",
          "name": "tokenId",
          "type": "uint256"
        },
        {
          "internalType": "uint256",
          "name": "price",
          "type": "uint256"
        },
        {
          "internalType": "bool",
          "name": "listed",
          "type": "bool"
        }
      ],
      "stateMutability": "view",
      "type": "function",
      "constant": true
    },
    {
      "inputs": [
        {
          "internalType": "address",
          "name": "newOwner",
          "type": "address"
        }
      ],
      "name": "transferOwnership",
      "outputs": [],
      "stateMutability": "nonpayable",
      "type": "function"
    },
    {
      "stateMutability": "payable",
      "type": "receive",
      "payable": true
    },
    {
      "inputs": [
        {
          "internalType": "address",
          "name": "_tokenAddress",
          "type": "address"
        },
        {
          "internalType": "uint256",
          "name": "_tokenId",
          "type": "uint256"
        },
        {
          "internalType": "uint256",
          "name": "_price",
          "type": "uint256"
        }
      ],
      "name": "listNFT",
      "outputs": [],
      "stateMutability": "nonpayable",
      "type": "function"
    },
    {
      "inputs": [
        {
          "internalType": "address",
          "name": "_seller",
          "type": "address"
        }
      ],
      "name": "getSellerListedNFTs",
      "outputs": [
        {
          "components": [
            {
              "internalType": "address",
              "name": "tokenAddress",
              "type": "address"
            },
            {
              "internalType": "uint256",
              "name": "tokenId",
              "type": "uint256"
            },
            {
              "internalType": "uint256",
              "name": "price",
              "type": "uint256"
            },
            {
              "internalType": "bool",
              "name": "listed",
              "type": "bool"
            }
          ],
          "internalType": "struct NFTMarket.NFT[]",
          "name": "",
          "type": "tuple[]"
        }
      ],
      "stateMutability": "view",
      "type": "function",
      "constant": true
    },
    {
      "inputs": [
        {
          "internalType": "uint256",
          "name": "_index",
          "type": "uint256"
        },
        {
          "internalType": "address",
          "name": "_owner",
          "type": "address"
        }
      ],
      "name": "removeNFTFromMarket",
      "outputs": [],
      "stateMutability": "payable",
      "type": "function",
      "payable": true
    },
    {
      "inputs": [],
      "name": "withdraw",
      "outputs": [],
      "stateMutability": "nonpayable",
      "type": "function"
    }
  ],
  "bytecode": "0x608060405234801561000f575f80fd5b50338061003557604051631e4fbdf760e01b81525f600482015260240160405180910390fd5b61003e81610044565b50610093565b5f80546001600160a01b038381166001600160a01b0319831681178455604051919092169283917f8be0079c531659141344cd1fd0a4f28419497f9722a3daafe3b4186f6b6457e09190a35050565b6109b4806100a05f395ff3fe608060405260043610610087575f3560e01c8063715018a611610057578063715018a61461012f5780638da5cb5b14610143578063aa99659014610169578063ad05f1b4146101b4578063f2fde38b146101d3575f80fd5b8063150b7a02146100925780633ccfd60b146100da578063427a0d16146100f0578063540a22141461011c575f80fd5b3661008e57005b5f80fd5b34801561009d575f80fd5b506100bc6100ac36600461075c565b630a85bd0160e11b949350505050565b6040516001600160e01b031990911681526020015b60405180910390f35b3480156100e5575f80fd5b506100ee6101f2565b005b3480156100fb575f80fd5b5061010f61010a366004610835565b6102e2565b6040516100d19190610857565b6100ee61012a3660046108c5565b610385565b34801561013a575f80fd5b506100ee61047e565b34801561014e575f80fd5b505f546040516001600160a01b0390911681526020016100d1565b348015610174575f80fd5b506101886101833660046108f3565b610491565b604080516001600160a01b039095168552602085019390935291830152151560608201526080016100d1565b3480156101bf575f80fd5b506100ee6101ce36600461091d565b6104e0565b3480156101de575f80fd5b506100ee6101ed366004610835565b61067c565b6101fa6106b9565b478061024d5760405162461bcd60e51b815260206004820152601e60248201527f546865726520617265206e6f20636f696e7320746f207769746864726177000060448201526064015b60405180910390fd5b5f80546040516001600160a01b039091169083908381818185875af1925050503d805f8114610297576040519150601f19603f3d011682016040523d82523d5f602084013e61029c565b606091505b50509050806102de5760405162461bcd60e51b815260206004820152600e60248201526d11985a5b1959081d1bc81cd95b9960921b6044820152606401610244565b5050565b6001600160a01b0381165f908152600160209081526040808320805482518185028101850190935280835260609492939192909184015b8282101561037a575f848152602090819020604080516080810182526004860290920180546001600160a01b03168352600180820154848601526002820154928401929092526003015460ff16151560608301529083529092019101610319565b505050509050919050565b6001600160a01b0381165f9081526001602052604090205482106103e05760405162461bcd60e51b815260206004820152601260248201527113919508191bd95cc81b9bdd08195e1a5cdd60721b6044820152606401610244565b6001600160a01b0381165f9081526001602052604081208054849081106104095761040961094f565b5f9182526020909120600490910201600381015490915060ff1661046f5760405162461bcd60e51b815260206004820152601760248201527f4e4654206e6f74206c697374656420666f722073616c650000000000000000006044820152606401610244565b600301805460ff191690555050565b6104866106b9565b61048f5f6106e5565b565b6001602052815f5260405f2081815481106104aa575f80fd5b5f91825260209091206004909102018054600182015460028301546003909301546001600160a01b039092169450925060ff1684565b6040516331a9108f60e11b815260048101839052839033906001600160a01b03831690636352211e90602401602060405180830381865afa158015610527573d5f803e3d5ffd5b505050506040513d601f19601f8201168201806040525081019061054b9190610963565b6001600160a01b0316146105a15760405162461bcd60e51b815260206004820152601860248201527f4e6f7420746865206f776e6572206f6620746865204e465400000000000000006044820152606401610244565b5f82116105f05760405162461bcd60e51b815260206004820152601f60248201527f5072696365206d7573742062652067726561746572207468616e207a65726f006044820152606401610244565b50335f90815260016020818152604080842081516080810183526001600160a01b039889168152808401978852918201958652606082018481528154808601835591865292909420905160049094020180546001600160a01b03191693909616929092178555925192840192909255516002830155516003909101805460ff1916911515919091179055565b6106846106b9565b6001600160a01b0381166106ad57604051631e4fbdf760e01b81525f6004820152602401610244565b6106b6816106e5565b50565b5f546001600160a01b0316331461048f5760405163118cdaa760e01b8152336004820152602401610244565b5f80546001600160a01b038381166001600160a01b0319831681178455604051919092169283917f8be0079c531659141344cd1fd0a4f28419497f9722a3daafe3b4186f6b6457e09190a35050565b6001600160a01b03811681146106b6575f80fd5b634e487b7160e01b5f52604160045260245ffd5b5f805f806080858703121561076f575f80fd5b843561077a81610734565b9350602085013561078a81610734565b925060408501359150606085013567ffffffffffffffff808211156107ad575f80fd5b818701915087601f8301126107c0575f80fd5b8135818111156107d2576107d2610748565b604051601f8201601f19908116603f011681019083821181831017156107fa576107fa610748565b816040528281528a6020848701011115610812575f80fd5b826020860160208301375f60208483010152809550505050505092959194509250565b5f60208284031215610845575f80fd5b813561085081610734565b9392505050565b602080825282518282018190525f919060409081850190868401855b828110156108b857815180516001600160a01b031685528681015187860152858101518686015260609081015115159085015260809093019290850190600101610873565b5091979650505050505050565b5f80604083850312156108d6575f80fd5b8235915060208301356108e881610734565b809150509250929050565b5f8060408385031215610904575f80fd5b823561090f81610734565b946020939093013593505050565b5f805f6060848603121561092f575f80fd5b833561093a81610734565b95602085013595506040909401359392505050565b634e487b7160e01b5f52603260045260245ffd5b5f60208284031215610973575f80fd5b81516108508161073456fea2646970667358221220cbccbff3419cfaf78de741bcf6532450a8e3dbf75c9b944de1a8df234b9784d764736f6c63430008170033",
  "immutableReferences": {},
  "source": "// SPDX-License-Identifier: MIT\npragma solidity ^0.8.0;\n\nimport \"@openzeppelin/contracts/token/ERC721/IERC721.sol\";\nimport \"@openzeppelin/contracts/token/ERC721/utils/ERC721Holder.sol\";\nimport \"@openzeppelin/contracts/access/Ownable.sol\";\n\ncontract NFTMarket is ERC721Holder, Ownable {\n    struct NFT {\n        address tokenAddress;\n        uint256 tokenId;\n        uint256 price;\n        bool listed;\n    }\n\n    mapping(address => NFT[]) public sellerNFTs;\n\n    receive() external payable {}\n\n     constructor() Ownable(msg.sender) {\n        \n    }\n\n    function listNFT(address _tokenAddress, uint256 _tokenId, uint256 _price) public {\n        IERC721 nftToken = IERC721(_tokenAddress);\n        require(nftToken.ownerOf(_tokenId) == msg.sender, \"Not the owner of the NFT\");\n        require(_price > 0, \"Price must be greater than zero\");\n\n        sellerNFTs[msg.sender].push(NFT({\n            tokenAddress: _tokenAddress,\n            tokenId: _tokenId,\n            price: _price,\n            listed: true\n        }));\n    }\n\n    function getSellerListedNFTs(address _seller) public view returns (NFT[] memory) {\n        return sellerNFTs[_seller];\n    }\n\n    function removeNFTFromMarket(uint256 _index, address _owner) public payable {\n        require(_index < sellerNFTs[_owner].length, \"NFT does not exist\");\n\n        NFT storage nft = sellerNFTs[_owner][_index];\n        require(nft.listed, \"NFT not listed for sale\");\n\n        nft.listed = false;\n    }\n\n    function withdraw() public onlyOwner {\n        uint256 amount = address(this).balance;\n        require(amount > 0, \"There are no coins to withdraw\");\n\n        (bool success, ) = owner().call{value: amount}(\"\");\n        require(success, \"Failed to send\");\n    }\n}\n",
  "sourcePath": "/Users/instant/Desktop/DeployByTruffle/contracts/NFTMarket.sol",
  "compiler": {
    "name": "solc",
    "version": "0.8.23+commit.f704f362.Emscripten.clang"
  },
  "schemaVersion": "3.4.16",
  "updatedAt": "2023-11-11T18:00:16.780Z",
  "networkType": "ethereum",
  "devdoc": {
    "errors": {
      "OwnableInvalidOwner(address)": [
        {
          "details": "The owner is not a valid owner account. (eg. `address(0)`)"
        }
      ],
      "OwnableUnauthorizedAccount(address)": [
        {
          "details": "The caller account is not authorized to perform an operation."
        }
      ]
    },
    "kind": "dev",
    "methods": {
      "onERC721Received(address,address,uint256,bytes)": {
        "details": "See {IERC721Receiver-onERC721Received}. Always returns `IERC721Receiver.onERC721Received.selector`."
      },
      "owner()": {
        "details": "Returns the address of the current owner."
      },
      "renounceOwnership()": {
        "details": "Leaves the contract without owner. It will not be possible to call `onlyOwner` functions. Can only be called by the current owner. NOTE: Renouncing ownership will leave the contract without an owner, thereby disabling any functionality that is only available to the owner."
      },
      "transferOwnership(address)": {
        "details": "Transfers ownership of the contract to a new account (`newOwner`). Can only be called by the current owner."
      }
    },
    "version": 1
  },
  "userdoc": {
    "kind": "user",
    "methods": {},
    "version": 1
  }
}