{
  "contractName": "Proxy",
  "abi": [
    {
      "inputs": [
        {
          "internalType": "address",
          "name": "_logic",
          "type": "address"
        }
      ],
      "stateMutability": "nonpayable",
      "type": "constructor"
    },
    {
      "stateMutability": "payable",
      "type": "fallback",
      "payable": true
    },
    {
      "inputs": [],
      "name": "implementation",
      "outputs": [
        {
          "internalType": "address",
          "name": "",
          "type": "address"
        }
      ],
      "stateMutability": "view",
      "type": "function",
      "constant": true
    },
    {
      "inputs": [
        {
          "internalType": "address",
          "name": "_newImplementation",
          "type": "address"
        }
      ],
      "name": "upgrade",
      "outputs": [],
      "stateMutability": "nonpayable",
      "type": "function"
    }
  ],
  "bytecode": "0x608060405234801561000f575f80fd5b5060405161020c38038061020c83398101604081905261002e91610052565b5f80546001600160a01b0319166001600160a01b039290921691909117905561007f565b5f60208284031215610062575f80fd5b81516001600160a01b0381168114610078575f80fd5b9392505050565b6101808061008c5f395ff3fe608060405260043610610028575f3560e01c80630900f010146100a85780635c60da1b146100e3575b5f546001600160a01b0316806100845760405162461bcd60e51b815260206004820152601f60248201527f496d706c656d656e746174696f6e20636f6e7472616374206e6f742073657400604482015260640160405180910390fd5b604051365f82375f803683855af43d805f843e8180156100a2578184f35b8184fd5b005b3480156100b3575f80fd5b506100a66100c236600461011d565b5f80546001600160a01b0319166001600160a01b0392909216919091179055565b3480156100ee575f80fd5b505f54610101906001600160a01b031681565b6040516001600160a01b03909116815260200160405180910390f35b5f6020828403121561012d575f80fd5b81356001600160a01b0381168114610143575f80fd5b939250505056fea2646970667358221220b844b378cd9af7993cd27290405cd046bdfc88a14964bc9b2c1f665d690deed964736f6c63430008170033",
  "immutableReferences": {},
  "source": "// SPDX-License-Identifier: MIT\npragma solidity ^0.8.0;\n\ncontract Proxy {\n    address public implementation;\n\n    constructor(address _logic) {\n        implementation = _logic;\n    }\n\n    function upgrade(address _newImplementation) public {\n        implementation = _newImplementation;\n    }\n\n    fallback() external payable {\n        address _impl = implementation;\n        require(_impl != address(0), \"Implementation contract not set\");\n\n        assembly {\n            let ptr := mload(0x40)\n            calldatacopy(ptr, 0, calldatasize())\n            let result := delegatecall(gas(), _impl, ptr, calldatasize(), 0, 0)\n            let size := returndatasize()\n            returndatacopy(ptr, 0, size)\n\n            switch result\n            case 0 { revert(ptr, size) }\n            default { return(ptr, size) }\n        }\n    }\n}\n",
  "sourcePath": "/Users/instant/Desktop/DeployByTruffle/contracts/Proxy.sol",
  "compiler": {
    "name": "solc",
    "version": "0.8.23+commit.f704f362.Emscripten.clang"
  },
  "schemaVersion": "3.4.16",
  "updatedAt": "2023-11-15T07:52:43.326Z",
  "networkType": "ethereum",
  "devdoc": {
    "kind": "dev",
    "methods": {},
    "version": 1
  },
  "userdoc": {
    "kind": "user",
    "methods": {},
    "version": 1
  }
}